:020000040800F2
:10800000684D0020DD810008F3D60008B5CC0008DB
:10801000F1D60008F191000825FF000800000000DB
:10802000000000000000000000000000398100088E
:10803000F5AE0008000000007D81000841F1000855
:10804000F7810008F7810008F7810008F781000830
:10805000F7810008F7810008F78100086DAF00087C
:10806000F7810008F7810008F7810008F781000810
:10807000F7810008F7810008F7810008F781000800
:10808000F7810008F7810008F7810008F7810008F0
:10809000F7810008F7810008F7810008F7810008E0
:1080A000F7810008F7810008F7810008F7810008D0
:1080B000F7810008F7810008F7810008F7810008C0
:1080C000F7810008F7810008F7810008F7810008B0
:1080D000F7810008E9FC000805FE0008F7810008A8
:1080E00065AF00088DE40008F7810008F7810008FB
:1080F000F781000800000000F7810008F781000800
:108100000000000000000000F7810008F78100086F
:10811000F7810008F7810008F781000800000000DF
:10812000F7810008DFF80CD000F01AFC0048004787
:10813000E90D0108684D0020204B19680868B0E877
:10814000F00F80F30988BFF36F8F4FF0000080F3CA
:1081500011884EF00D0E70470000000006480068C0
:10816000006880F3088862B661B6BFF34F8FBFF333
:108170006F8F00DF00BF00BF08ED00E0EFF3098064
:10818000BFF36F8F0D4B1A6820E9F00F106008B530
:108190004FF0500080F3118809F0C6FC4FF000004A
:1081A00080F31188BDE8084019680868B0E8F00F4E
:1081B00080F30988BFF36F8F704700BF0000002075
:1081C000EFF311804FF0500181F31188704780F375
:1081D00011887047EFF3058070470000064880471C
:1081E00006480047FEE7FEE7FEE7FEE7FEE7FEE79C
:1081F000FEE7FEE7FEE7FEE79DF6000825810008A2
:1082000040EA01039B0703D009E008C9121F08C018
:10821000042AFAD203E011F8013B00F8013B521E98
:10822000F9D27047D2B201E000F8012B491EFBD20F
:1082300070470022F6E710B513460A460446194671
:10824000FFF7F0FF204610BD10B5044604E00B78A0
:1082500000F8013B03B1491C521EF8D2204610BD64
:10826000421C10F8011B0029FBD1801A7047CBB2C9
:1082700003E00178994203D0401C521EF9D200203D
:10828000704730B504460020034600E05B1C934273
:1082900003D2E05CCD5C401BF8D030BD70B50F4D13
:1082A00000B92868002412E00A4602E09E4203D08A
:1082B000521C1378002BF9D1DAB2224305D02BB12E
:1082C00024B1002100F8011B04E00446401C06789C
:1082D000002EE9D12860204670BD0000400100203A
:1082E00070B5064607F058FE046805460A220021CC
:1082F000304600F00DF92C6070BD80EA010210B527
:1083000002F00043400022D04A001FD0010E01EBD2
:108310001261C0F35600C2F3560240F4000042F46A
:108320000002A0FB022000047F39140400D0401C8E
:1083300050EA124001D44000491EC2B20C0604EBC0
:10834000D010401C4008802A02D003E0002010BD5D
:1083500020F00100002900DA0020184310BD20F0B1
:108360000040C10DC0F3160040F400007F2901DA7F
:1083700000207047962903DCC1F19601C840704780
:1083800096398840704700F0004230F000400AD033
:10839000C10D01F56071C0F3160042EA0151C20837
:1083A00040071143704700200146704701F0004329
:1083B00030B421F0004150EA010206D00A0DA2F5C6
:1083C0006072C1F31301002A02DC30BC0020704748
:1083D000440F44EAC104C100E01830BC00EBC250B5
:1083E00000F0CEB830B50B46014600202022012413
:1083F00009E021FA02F59D4205D303FA02F5491B73
:1084000004FA02F52844151EA2F10102F1DC30BD88
:108410002DE9F05F0546002092469B4688460646B9
:10842000814640241BE0284641464746224600F04C
:10843000B8FA53465A46C01A914110D3114618460D
:10844000224600F09FFA2D1A67EB01084F4622469C
:108450000120002100F096FA17EB00094E41201E82
:10846000A4F10104DFDC484631462A464346BDE814
:10847000F09F00000FB4002300B589B00CA9009153
:108480000B996FF00042CB601E4B06931E4B079377
:108490000423CDE901321D4A089202466B460020B2
:1084A00000F030FB09B05DF814FB70B586B00646ED
:1084B0004FF0FF300091CDE90101002015460C4638
:1084C00004903246694604A8FFF7D4FF0346049897
:1084D000211825B108B10A4600E022462A6000288A
:1084E0000DD0002B02DD0098884208D0081B0094B4
:1084F000CDE901043246694604A8FFF7BBFF06B088
:1085000070BD00003D8D00085B8D0008F1890008FA
:108510002DE9F04791460F4680460446002614F8A0
:10852000015B2DB100F060FA0068405DC007F6D134
:108530002B2D02D02D2D18D0641E4A4639462046D8
:1085400000F01CFC27B13968A14201D1C7F80080B6
:1085500071054FF002040BD54042002803DD07F0FF
:108560001BFD0460A007BDE8F08746F48066E4E7E1
:108570000028F8DA07F010FD04606FF00040F2E721
:108580000029A8BF7047401C490008BF20F0010027
:10859000704710B4B0FA80FC00FA0CF050EA010405
:1085A00004BF10BC704749B1CCF1200421FA04F497
:1085B00011FA0CF118BF012121430843A3EB0C0170
:1085C000CB1D4FEA00614FEA102042BF002010BCD3
:1085D000704700EBC35010440029A4BF10BC704783
:1085E000401C490008BF20F0010010BC70472DE975
:1085F000FE4F804681EA0300C00F0C46009021F038
:10860000004123F00045B8EB0200A94105D24046E5
:10861000214690461C460B46024623F0004010437C
:1086200047D0270DC7F30A00C3F30A510290401A3E
:10863000019040286BDAC3F3130040F4801B0098CC
:10864000924620B10023D2EB030A63EB0B0B019897
:108650005946C0F14002504600F094F906460D46D6
:1086600050465946019A00F0ACF910EB0800614100
:10867000002487EA115284EAE7731A4340D0009A33
:1086800062B3019A012A4FEA075215DC001B61EB25
:1086900002014FF0004202EA0752CDE90042001CFD
:1086A00041F5801132462B4600F0C6FB03B0BDE811
:1086B000F08F40462146F9E7001B61EB0201001CE8
:1086C00041F5801300185B412018A2F5001747EB15
:1086D000030140EAD570B6196D4111E06D084FEA0B
:1086E000360645EAC0754FEA0752001B61EB0201EE
:1086F000001C41F5801149084FEA30000019514132
:1087000032462B4603B0BDE8F04F00F086BB009820
:10871000012240000023D0EB020263EBE0730098DB
:1087200021464FEAE074B8EB000061EB0401E9E791
:1087300083F000435BE781F0004158E72DE9FE4FED
:1087400081EA030404F0004421F0004100944FF05A
:10875000000B23F0004350EA01045ED052EA030408
:108760005BD0C3F30A54C1F30A552C44A4F2F3348A
:108770000194A0FB0254C1F3130141F48011C3F32F
:10878000130343F4801301FB024400FB034E840AED
:10879000970A44EA815447EA8357A4FB0768029585
:1087A0008D0A05FB07854FEA932C04FB0C54270523
:1087B000029D4FEA065847EA1637B5EB08056EEBFF
:1087C000070C870E920E47EA811742EA8312A7FB35
:1087D0000201B6EB0B0164EB00042B0D43EA0C33F2
:1087E0005E1844EB1C50DA465146E7FB0201C5F324
:1087F00013044FEA0B3343EA14534FEA0432019C4B
:1088000043EA0603A4F10C040294009CCDE900B4F1
:1088100000F012FB03B0BDE8F08F00200146F9E73D
:108820002DE9F04D81EA030404F0004B21F00045EE
:1088300014464FF0000A23F0004150EA050220D010
:1088400054EA01021DD0C5F30A570246C5F31303CB
:10885000C1F31300C1F30A5640F4801543F48013AA
:10886000A7EB0608101BD64608F2FD3873EB05008F
:1088700002D308F1010801E092185B41B8F1000F42
:1088800003DA00200146BDE8F08D00204FF480118E
:10889000064684460EE0171B73EB050705D3121B33
:1088A00063EB050306434CEA010C49084FEA30002C
:1088B00092185B4150EA0107EDD152EA030012D051
:1088C00082EA040083EA0501084305D0101BAB418E
:1088D00006D20122002306E000224FF0004302E00E
:1088E0006FF0010253101AEB06004CEB085110EB2D
:1088F0000A0041EB0B01BDE8F04D00F08EBAC1F368
:108900000A52C1F3130140F2FF3341F480119A423D
:1089100002DA00200146704740F233439A42A2F245
:10892000334202DC524200F03CB800F02BB80000A9
:1089300030B5041E71F1000404DB4FF000444042E6
:1089400064EB0101141E73F1000405DB1C464FF0BB
:108950000043524263EB0403994208BF904230BD8A
:10896000064C074D06E0E06840F0010394E807007C
:1089700098471034AC42F6D3FFF7D8FB983601087D
:10898000B8360108202A04DB203A00FA02F1002060
:1089900070479140C2F1200320FA03F3194390403D
:1089A0007047202A04DB203A21FA02F000217047A8
:1089B00021FA02F3D040C2F1200291400843194647
:1089C0007047202A06DBCB17203A41FA02F043EA2F
:1089D000E07306E041FA02F3D040C2F12002914078
:1089E0000843194670470000004870476C3601087C
:1089F00010B50446FFF7F8FF0068005D00F00100C5
:108A000010BD00002DE9FF4F087881B09946FF287E
:108A100005D0491C2D2804D00024002308E00023A1
:108A20000BE00124F9E703EB830300EB4303491C4C
:108A30000878FF28F7D104B15B4200200090147839
:108A400001462D2C01D02B2C04D1521C2D2C12D0E0
:108A50000024009400251678FF2E0ED00A24A0FBD7
:108A600004C801FB0481002700FB0711521C16EB10
:108A70000C006941EFE70124EBE7994450EA010259
:108A80000ED00024AA4D2646DFF8A88200F030FA66
:108A900082468B46B9F1000009DAC9F100071BE0F4
:108AA00001980021C0E9001105B0BDE8F08F07462C
:108AB00012E0F80707D022462B4630464146FFF722
:108AC0003DFE0646884622462B4610461946FFF7CD
:108AD00035FE04460D467F10002FEAD1B9F1000F94
:108AE000324643465046594602DAFFF799FE01E006
:108AF000FFF724FE009A0AB181F00041019AC2E911
:108B00000001D1E72DE9FF4F1F468DB0D7E901469F
:108B10004FF0FF382E2045464FF000090B90B96901
:108B20006D1C0E988847396A824688470028F6D11E
:108B3000BAF1FF3F0AD024F4D064002E11DDBAF15F
:108B40002B0F08D0BAF12D0F0BD102E0404611B027
:108B5000ABE744F48064B9696D1C0E98884782467F
:108B6000761E6946600501D52D2000E02B208DF88A
:108B7000000001F1010B0DF1200809E0B9696D1C3D
:108B80000E98884782460F9844F40074761E05605C
:108B9000002E02DDBAF1300FF0D00B998A453ED19C
:108BA00044F0800406E00F99681CA9F1010944F41F
:108BB00000740860B9696D1C761E0E98884782465D
:108BC0003028F0D02BE00B998A4505D1200603D43C
:108BD00044F08004761E18E0504607F0AFFA08B360
:108BE0000DF11301761E44F400748B4508D2AAF1EE
:108BF00030000BF8010B200607D5A9F1010003E0B6
:108C0000200602D409F101008146A00502D50F9982
:108C1000681C0860B9696D1C0E9888478246002E52
:108C2000D1DC53E0002E51DDBAF1650F02D0BAF16C
:108C3000450F4BD1A00549D5B9696D1C24F440748A
:108C4000761E0E9888478246002E0CDD2B2804D015
:108C5000BAF12D0F07D144F48074B9696D1C0E98D8
:108C600088478246761EE00501D52D2100E02B21A4
:108C700008F8011BCDF82C8021E00DF12901761EAA
:108C800044F4007488450CD2AAF1300010F0FF00C3
:108C900088F8000002D10B99884509D908F101082C
:108CA00006E0E00501D5244801E042F20F7081465C
:108CB000B9696D1C0E98884782460F980560002E92
:108CC00004DD504607F03AFA0028D6D1F9690E982B
:108CD0008847FF208BF8000088F8000000200690ED
:108CE00007904B466A4608A906A8FFF78BFEA00529
:108CF00002D46FF001002AE714F0240F0AD0E00735
:108D000014D1DDE906123868031D3B600068C0E934
:108D100000120BE0DDE90601FFF748FB0146E00722
:108D200004D13868021D3A600068016028460EE7E9
:108D3000000024400000F03FF1D8FFFF426842B13C
:108D4000016811F8013B23B1521EC0E90012184618
:108D500070470121C160881E704742685AB1C368DC
:108D6000016843B983688B4205D0491E521CC0E993
:108D70000012002070474FF0FF3070472DE9F05F80
:108D800082460078002715468B460AF10104B94651
:108D9000302801D09DB113E014F8010B0127782889
:108DA00003D0582801D045B10AE00DB1102D07D1EC
:108DB0000027102514F8010B02E0082500E00A2521
:108DC0000026B0460EE005FB080005FB06F1012772
:108DD00001EB10461FFA80F8B6F5803F00D3B94684
:108DE00014F8010B294600F075F80028EBDABBF106
:108DF000000F05D00FB1641E00E05446CBF80040D0
:108E0000B9F1000F06D007F0C7F802210160C81EB3
:108E1000BDE8F09F48EA0640FAE710B5141E73F16A
:108E2000000408DA401C41F1000192185B411A432A
:108E300001D120F0010010BD2DE9F04D92469B4676
:108E400011B1B1FA81F202E0B0FA80F2203290461C
:108E5000FFF798FD04460F4640EA0A0041EA0B017D
:108E600053465A46084313D0114653EA010019D01D
:108E7000C8F140025046FFF794FD05460E465046A5
:108E800059464246FFF77EFD084305D0012004E025
:108E900020463946BDE8F08D0020054346EAE076DD
:108EA0002C4337430A986305E40AA0EB080000222C
:108EB000FD0A44EA47540A3002D500200146E9E79A
:108EC000010510196941DDE9084500196941BDE84E
:108ED000F04DA2E73A2800D2303820F02002412A93
:108EE00001D3A2F13700884201D34FF0FF30704721
:108EF0000EB540F2334202920022CDE90022134621
:108F0000FFF79AFF03B000BD30B58C1810F8012BA5
:108F100012F00F0301D110F8013B120906D110F82D
:108F2000012B03E010F8015B01F8015B5B1EF9D136
:108F300001E001F8013B521EFBD1A142E6D3002023
:108F400030BD2DE9F0411C4615460F46064609E0A6
:108F50003946781C87B2304602F04EF8641E05F898
:108F6000010BA4B2002CF3D1BDE8F0812DE9F04152
:108F700000250446052927D2DFE801F00313260C5B
:108F80000F00206900B31349C8614580058004F0D3
:108F900067FC19E02088401C01E02088401E2080EA
:108FA00012E001220C4F16033146384602F0B7FB9F
:108FB0004FF47A73072209A10A4803F015FE002234
:108FC0003146384602F0ABFB2088002800D02580CF
:108FD000BDE8F0813C000020000002403C524441CA
:108FE00054413E00580800207CB5408800287CD1C0
:108FF00000233B221946012004F0C6FB00231B225C
:109000001946112004F0C0FB002317221946212025
:1090100004F0BAFB002318221946312004F0B4FBF7
:1090200000233A221946412004F074FB002365A274
:109030001946582004F02EFD00233E2219467020C8
:1090400004F0A2FB00233B221021012004F09CFB32
:1090500000231B221021112004F096FB002317226D
:109060001021212004F090FB00231922102131202F
:1090700004F08AFB00233A221021412004F04AFB2D
:10908000002351A21021502004F004FD00233C22B3
:109090002021012004F078FB00231B222021112035
:1090A00004F072FB002317222021212004F06CFB26
:1090B000002318222021312004F066FB00233A22ED
:1090C0002021412004F026FB00233EA2202158202D
:1090D00004F0E0FC00233E222021702004F054FB29
:1090E00000233C223021012000E06AE004F04CFB28
:1090F00000231B223021112004F046FB00231722FD
:109100003021212004F040FB00231922302131209E
:1091100004F03AFB00233A223021412004F0FAFA0D
:10912000002329A23021502004F0B4FC2848294E05
:10913000294C2A4D03684BB9306810F0FF4F05D118
:10914000206818B9286810F0FF4F36D024A280217B
:10915000244806F0F9FE0023224A1946582004F05C
:1091600099FC3068FFF70FF9CDE900011EA28021BC
:109170001C4806F0E9FE00231A4A1021482004F09A
:1091800089FC17A280211748236806F0DDFE002322
:10919000144A2021582004F07DFC2868FFF7F3F8DA
:1091A000CDE9000110A280210E4806F0CDFE00237B
:1091B0000C4A3021482004F06DFCBDE87C4004F0EE
:1091C00049BC7CBD2F2F2F002F2F2F6D2F73000038
:1091D000A0000020B8000020A4000020BC00002057
:1091E00025336400E40C002025342E316600000095
:1091F000FEE7000070B586B014216846FFF719F845
:109200001448016841F0010101600068022400F087
:10921000010000940590002503940F48CDE9010555
:109220000E4E6946304602F0AFF900220A210720AF
:1092300002F0F6FA072002F0E8FA4FF4F870CDE9F0
:1092400000050120CDE902046946304602F09CF990
:1092500006B070BD1C380240000021100000024022
:109260002DE9F041334E00250446062955D2DFE8AA
:1092700001F003330C2C2F36206900284DD0F0610B
:109280004580058004F0ECFA47E0208803284AD0A6
:10929000606900B3F06145800580858004F0E0FAE4
:1092A000244825490A3007F031FB22480A30C178AA
:1092B0003170417871708078B0701F480178F1701A
:1092C000417831718078707127E02088401C01E07E
:1092D0002088401E208020E017482C30CFE72088CF
:1092E00003281AD1606900281DD0F06145800580EF
:1092F00004F0B6FA0122114F16033146384602F047
:109300000EFA4FF47A7308220DA10F4803F06CFC9B
:1093100000223146384602F002FAB4F90000002873
:1093200003DA03202080BDE8F0810328FBDD2580DF
:10933000F9E700003C0000209002002000000240FD
:109340003C46494E44453E005808002070B504464E
:10935000008800287DD000252B461E2200210120F8
:1093600004F012FA2B461F220021112004F00CFAFF
:109370002B4620220021212004F006FA2B4602224F
:109380000021312004F000FA002347A219464120B1
:1093900004F080FB2088012871D000252B460E2286
:1093A0001021012004F0F0F92B4628221021112071
:1093B00004F0EAF92B460F221021212004F0E4F9F1
:1093C00010222B461146312004F0DEF9002336A28C
:1093D0001021412004F05EFB2088022851D0002596
:1093E0002B462A222021012004F0CEF92B462B22E5
:1093F0002021112004F0C8F92B460F222021212022
:1094000004F0C2F92B4610222021312004F0BCF9CF
:10941000002325A22021412004F03CFB20880328C2
:1094200031D000252B4637223021012004F0ACF941
:109430002B4638223021112004F0A6F92B46392280
:109440003021212004F0A0F93A2230212B4631208E
:1094500000E011E004F098F9002314A2302141202B
:1094600004F018FBB4F9000078B101280FD00228ED
:1094700014D003280ED114E001256DE7FFE7012584
:109480008CE70125ACE70125CCE70A4801E0094853
:1094900030386061BDE8704004F0DCBA054818302F
:1094A000F7E704483030F4E72E2E2E00202A2A2A2F
:1094B000000000001C0300202DE9FE4F0024894617
:1094C00002940646B0F90410FE48274625460629B0
:1094D00015D2DFE801F0E4034587C9DCB6F90010D6
:1094E00071B1012912D0022916D003291AD00429FA
:1094F0001ED0052922D0062926D007292AD0CEE061
:10950000F04DB0F90A400A350127C8E0ED4DB0F939
:109510000C400C350127C2E0EA4DB0F90E400E3583
:109520000127BCE0E74DB0F93A403A350127B6E0F3
:10953000E44DB0F9104010350927B0E0E14DB0F925
:10954000124012350127AAE0DE4DB0F9144014355F
:109550000127A4E0DB4DB0F91640163509279EE03F
:10956000B6F9001071B1012912D0022916D00329D1
:109570001AD004291ED0052922D0062926D0072971
:109580002AD08CE0CF4DB0F918401835092786E075
:10959000CC4DB0F91A401A35092780E0C94DB0F911
:1095A0001C401C3509277AE0C64DB0F93C403C35DB
:1095B000092774E0C34DB0F91E401E3509276EE03F
:1095C000C04DB0F920402035092768E0BD4DB0F905
:1095D00022402235092762E0BA4DB0F924402435F3
:1095E00009275CE0B6F9001071B1012912D00229F7
:1095F00016D003291AD004291ED0052922D0062905
:1096000026D007292AD04AE0AE4DB0F926402635AB
:10961000092744E0AB4DB0F92840283509273EE042
:10962000A84DB0F92A402A35092738E0A54DB0F9F0
:109630003E403E35092732E0A24DB0F92C402C3592
:1096400009272CE09F4DB0F92E402E35092726E042
:109650009C4DB0F930403035092720E0994DB0F9E4
:109660003240323509271AE0B6F90010042902D039
:10967000062906D013E0934DB0F93440343509275C
:109680000DE0904DB0F936403635092707E03188B6
:10969000042904D18B4DB0F93840383509278A495F
:1096A0004FF47A738246D1F800C042F21071BCFBCD
:1096B000F1F1018242F21071BCFBF1F201FB12C127
:1096C000B1FBF3F1C183BCFBF3F103FB11C26421D5
:1096D000B2FBF1F28285BCFBF1F201FB12C80A2257
:1096E000B8FBF2F8A0F83480BCFBF2F802FB18CC0F
:1096F000A0F838C0DFF8D4C1DCF800C09CFBF1F85A
:10970000A0F80A809CFBF1F801FB18C898FBF2F85E
:10971000A0F818809CFBF2F802FB18CCA0F826C039
:10972000DFF8ACC1DCF800C09CFBF1F8A0F80C80BD
:109730009CFBF1F801FB18C898FBF2F8A0F81A801E
:109740009CFBF2F802FB18CCA0F828C0DFF884C11B
:10975000DCF800C09CFBF1F8A0F80E809CFBF1F84F
:1097600001FB18C898FBF2F8A0F81C809CFBF2F8EB
:1097700002FB18CCA0F82AC0DFF85CC1DCF800C0FE
:109780009CFBF1F8A0F83A809CFBF1F801FB18C8AB
:1097900098FBF2F8A0F83C809CFBF2F802FB18CC96
:1097A000A0F83EC0DFF834C1DCF800C09CFBF1F843
:1097B000A0F812809CFBF1F801FB18C898FBF2F8A6
:1097C000A0F820809CFBF2F802FB18CCDFF810B167
:1097D000A0F82EC0B9F1050FDBF800C09CFBF3F830
:1097E000A0F814809CFBF3F803FB18C393FBF1F380
:1097F00043849CFBF1F301FB13C191FBF2F1018661
:109800009CFBF2F102FB11C1AAF836103549364A29
:109810004FF0000812D2DFE809F003F212F1F00075
:1098200082F8008032694046002A07D0B080CA61C1
:1098300050800320A2F8000004F012F80DE1107827
:109840000128FBD1B088DFF8A490401C00B2B080A2
:10985000B6F90020264B4FF4805162B1012A16D090
:10986000022A57D0032A61D0042A7DD0052A7CD051
:10987000062A7BD0F1E0032879DD01228B469A4647
:10988000184601F04CFF11481AA203680AE00328A9
:10989000F2DD01228B469A46184601F040FF0C4843
:1098A00017A203688021194806F04EFB4FF47A7323
:1098B00007221649164803F097F9002259465046E8
:1098C000B2E000003C020020DC000020C8000020C4
:1098D000CC000020D0000020F8000020D4000020A0
:1098E000D80000203C000020800000208C000020D8
:1098F000000002403C5A47253033753E000000000E
:109900003C4847253033753E00000000E40C002041
:109910005808002003282ADD01228B469A46184663
:1099200001F0FDFE6D486EA20368BBE703281EDD53
:1099300001228B469946184601F0F1FEBAF93E2005
:10994000BAF93C10CDE90012BAF93A3067A2802189
:109950006B4806F0F9FA4FF47A73072268496948B0
:1099600003F042F9002203E007E012E032E07AE07F
:109970005946484601F0D3FE6FE0052874DD012208
:109980008B469A46184601F0CAFE5F485FA20368FC
:1099900088E703287BDD012211039B46184601F06E
:1099A000BEFEBAF92E20BAF92010CDE90012BAF99C
:1099B000123058A28021524806F0C6FA4FF47A734A
:1099C00007224F494F4803F00FF900224FF480510E
:1099D000584629E003286ADD01221103524801F0AC
:1099E0009EFEBAF9140010B1012809D011E04FA26F
:1099F00080214348DBF8003009E026E01EE034E037
:109A0000DBF800304CA280213D48A3F57A7306F0C4
:109A10009BFA4FF47A73072239493A4803F0E4F885
:109A200000224FF48051404801F079FED9F800003F
:109A300098B1334943A006F077FA0EE0B08808B138
:109A4000641C05E03088401C06E0B08810B1641E3C
:109A500024B202E03088401E3080B6F900000028B1
:109A60000ADA0720308012E018E03848C861A0F810
:109A70000280A0F80080DFE6072802DDA6F800805B
:109A800005E004280AD0062811D004281CD0B6F915
:109A90000400002814DA0320B08015E0B6F90400B1
:109AA000002801DA0520F7E705280BDC0CE0B6F901
:109AB0000400002801DA0420EEE7042802DC03E0B9
:109AC000032801DDA6F80480002C01DA3C4602E000
:109AD000BC4200DD029C2C80BDE8FE8FD00000203F
:109AE0003C5847253033753E000000003C57472561
:109AF00030317525303175253031753E000000005C
:109B0000E40C002058080020DC0000203C25303503
:109B1000753E00003C59472530317525303175259B
:109B20003031753E00000000000002403C4C2B2507
:109B30003033753E000000003C4C2D253033753E1F
:109B40000000000025730D0A00000000BC02002088
:109B50002DE9F84F0446B0F900000023042801DA8B
:109B6000002000E00120608001B2F748F74D0A268E
:109B7000007811B101297BD06FE3012802D00028C1
:109B800077D0F9E7B5F90A0064214843B5F9181010
:109B9000EF4F01EB810100EB4100B5F92610642283
:109BA00008443860B5F90C10DFF8A8835143B5F9C3
:109BB0001A20DFF8A49302EB820201EB4201B5F90F
:109BC00028200A44C8F80020B5F90E106422514339
:109BD000B5F91C2002EB820201EB4201B5F92A2003
:109BE0000A44C9F80020B5F93A1064225143B5F986
:109BF0003C20642802EB820201EB4201B5F93E20D1
:109C00001144D64A11600DDA2B220021502003F0B6
:109C100081FD396891FBF6F091FBF6F306FB10101D
:109C200000900DE02D220021502003F073FD3868D4
:109C3000643890FBF6F190FBF6F306FB11010091FE
:109C4000C7A28021C94806F07FF90023C74A1946F8
:109C5000582003F01FFF0023C5A21946402003F03F
:109C600019FF208898B30027A08888B3002001E05E
:109C7000EFE253E207403B4611220021012003F0AE
:109C800083FD3B4612220021112003F07DFD3B465F
:109C900040220021212003F077FD3B4633220021A2
:109CA000312003F071FD00233D221946702003F09E
:109CB0006BFD208888B10023A088012800D00020F7
:109CC0000340B5F90A0050B101280AD00EE000E0C7
:109CD00001E00127C8E70120C9E70123ECE72B22B7
:109CE00000E02D220021502003F014FD208880B3D5
:109CF0000027A08802282FD000200740B5F918308F
:109D00009CA28021994806F01FF93B46974A002102
:109D1000582003F0BFFE208800B30020A18803294B
:109D20001ED0002100EA010AB5F9263091A2802157
:109D30008E4806F009F953468C4A0021682003F04A
:109D4000A9FED8F800004746642853460ADA2B22B9
:109D500009E0FFE70127CCE70120CEE70120DDE79E
:109D60000121DFE72D221021502003F0D3FC83A234
:109D700080217E483B6806F0E7F800237B4A1021EB
:109D8000582003F087FE002379A21021402003F021
:109D900081FE2088012831D00027A08880B30020D0
:109DA00007403B4613221021012003F0EDFC3B4607
:109DB00014221021112003F0E7FC3B464022102121
:109DC000212003F0E1FC3B4633221021312003F037
:109DD000DBFC00236BA21021682003F05BFE2088CF
:109DE000012810D00023A088012800D000200340C3
:109DF000B5F90C0048B1012809D00DE00127CCE7E6
:109E0000FFE70120CCE70123EDE72B2200E02D2224
:109E10001021502003F07EFC2088012836D0002736
:109E2000A088022834D000200740B5F91A3051A28A
:109E300080214E4806F088F83B464C4A10215820B5
:109E400003F028FE2088012800D00020A1880329E3
:109E500020D0002100EA0108B5F9283045A2802170
:109E6000424806F071F84346404A1021602003F052
:109E700011FED9F800004F46642843460CDA2B2225
:109E80002021482003F046FC38680CE00127C7E792
:109E90000120C9E70121DDE72D222021482003F020
:109EA00039FC3868643890FBF6F190FBF6F306FB5A
:109EB000110100912AA280212C4806F045F80023C8
:109EC0002A4A2021502003F0E5FD00233A222021D8
:109ED000402003F01FFC2088022831D00026A088F3
:109EE00080B300200640334617222021012003F0D2
:109EF0004BFC334619222021112003F045FC334648
:109F000040222021212003F03FFC33463322202130
:109F1000312003F039FC00231BA22021682003F02C
:109F2000B9FD2088022833D00023A088012800D062
:109F300000200340B5F90E0028B101282CD030E0F4
:109F40000126CCE722E025E0800000203C02002032
:109F5000C8000020CC000020D0000020F800002025
:109F6000253031752E25303175000000E40C0020BD
:109F70003A20000025303175000000002530327590
:109F800000000000255248006D2F73000120A9E752
:109F90000123CAE72B2200E02D222021482003F0D4
:109FA000B9FB208802286FD00026A08802286DD037
:109FB0000020B5F91C300640AFF248028021FE486F
:109FC00005F0C2FF3346FC4A2021502003F062FD19
:109FD000208802285CD00026A08803285AD00020C0
:109FE000B5F92A300640AFF274028021F24805F03C
:109FF000ABFF3346F04A2021602003F04BFD0023E5
:10A00000AFF294023021402003F044FD00232E22C1
:10A010003021602003F07EFB208803283CD00026FE
:10A02000A08870B30020064033461A223021012058
:10A0300003F0AAFB334612223021112003F0A4FBC7
:10A04000334640223021212003F09EFB3346332249
:10A050003021312003F098FB00233D223021702075
:10A0600003F092FB208803281AD00023A08801283F
:10A0700000D000200340B5F93A0098B1012813D070
:10A0800017E00BE000E001E001268EE7012090E7F9
:10A090000126A1E70120A3E70126C1E70120C2E7CD
:10A0A0000123E3E72B2200E02D223021502003F092
:10A0B00031FB2088032829D00026A088022827D039
:10A0C0000020B5F93C300640AFF258128021BA4862
:10A0D00005F03AFF3346B84A3021582003F0DAFC45
:10A0E0002088032816D00026A088032814D000203A
:10A0F000B5F93E300640AFF284128021AE4805F03B
:10A1000023FF30213346AC4A682081E30126D4E79F
:10A110000120D6E70126E7E70120E9E720880028AB
:10A120007DD000252B4611220021012003F02CFBBD
:10A130002B4612220021112003F026FB2B46402241
:10A140000021212003F020FB2B4633220021312067
:10A1500003F01AFB00233D221946702003F014FB84
:10A16000002396A21946402003F094FC2088012881
:10A1700069D000252B4613221021012003F004FB97
:10A180002B4614221021112003F0FEFA2B46402208
:10A190001021212003F0F8FA2B4633221021312020
:10A1A00003F0F2FA002387A21021402003F072FC92
:10A1B0002088022849D000252B4617222021012083
:10A1C00003F0E2FA2B4619222021112003F0DCFAD9
:10A1D0002B4640222021212003F0D6FA2B463322A1
:10A1E0002021312003F0D0FA002379A22021402041
:10A1F00003F050FC2088032829D0002423461A228B
:10A200003021012003F0C0FA234612223021112010
:10A2100003F0BAFA402230212346212000E010E06A
:10A2200003F0B2FA234633223021312003F0ACFA96
:10A2300000233D223021702003F0A6FA00235FA204
:10A2400087E301256EE7012594E70125B4E70124A2
:10A25000D4E7012802D000287ED07EE3B5F914109F
:10A26000B5F9360001EB4102C2EBC11100EBC101AF
:10A27000B5F9220064225043B5F93020DFF85C8143
:10A2800002EB820200EB42000144C8F80010B5F96D
:10A29000100042F210714843B5F91E1001EB410263
:10A2A000C2EBC11100EBC100B5F92C1001EBC102EA
:10A2B00002EB011100EB8100B5F9341001EB8101D3
:10A2C00000EB4100B5F93810014445480160B5F98B
:10A2D000120064214843B5F92010002301EB8101ED
:10A2E00000EB4100B5F92E1008443E49AFF2803230
:10A2F00008601946402003F0CDFB00232E221946AA
:10A30000602003F007FA208804286DD00027A08879
:10A3100000286AD0002007403B461122002101207E
:10A3200003F032FA3B4615220021112003F02CFAEB
:10A330003B463F220021212003F026FA3B463A22E9
:10A340000021312003F020FA208804287ED0002745
:10A35000A088012802D000E075E20020B5F9103095
:10A360000740AFF2F0328021134805F0EDFD3B4687
:10A37000114A0021502003F08DFB2088042866D06C
:10A380000027A08802287DD00020B5F91E300740A4
:10A39000AFF220428021084805F0D6FD3B46064A30
:10A3A0000021582003F076FB208804286BD000277A
:10A3B000A088032868D019E0E40C00203A202A2F56
:10A3C0002E2F00003A202A2F2F255248000000008F
:10A3D0003A2A2F2E2F6D2F7300000000D800002086
:10A3E000DC000020D400002089E08AE00020B5F9DC
:10A3F0002C300740AFF284428021FE4805F0A4FDD6
:10A400003B46FC4A0021682003F044FB20880428D6
:10A4100072D00027A08804286FD00020B5F934300E
:10A420000740AFF2B0428021F24805F08DFD3B4677
:10A43000F04A0021702003F02DFB2088042872D000
:10A440000027A088052870D0002001E05BE05CE0D8
:10A45000B5F938300740AFF2E4428021E54805F015
:10A4600073FD3B46E34A0021782003F013FB0023F1
:10A470003A221021402003F04DF900231021DEA2E2
:10A48000682002E043E044E045E003F003FB0023E2
:10A490002E221021582003F03DF92088052846D0AF
:10A4A0000027A08850B3002007403B46112210210E
:10A4B000012003F069F93B4615221021112003F019
:10A4C00063F93B4640221021212003F05DF93B4611
:10A4D00033221021312003F057F9208805282AD093
:10A4E0000023A088012800D000200340B5F9120005
:10A4F00018B3012823D027E00FE012E019E001276C
:10A5000005E7012007E7012722E7012739E70120B6
:10A510003BE701274CE7012069E701277AE702E0E2
:10A5200003E001207AE701278BE701208DE701276F
:10A53000B7E70120B8E70123D3E72B2200E02D2263
:10A540001021482003F0E6F8208805287CD0002759
:10A55000A08802287AD00020B5F920300740AFF259
:10A56000EC528021A34805F0EFFC3B46A14A1021A4
:10A57000502003F08FFA2088052869D00027A08892
:10A58000032867D00020B5F92E300740AFF21C62D7
:10A590008021984805F0D8FC3B46964A102160205F
:10A5A00003F078FAD8F800104FF47A7291FBF6F0C5
:10A5B00091FBF2F306FB101002FB131191FBF6F373
:10A5C00000908EA280218B4805F0BEFC0023894AB2
:10A5D0002021482003F05EFA002387A22021682072
:10A5E00003F058FA2088062836D00026A08850B3F9
:10A5F0000020064033463F222021012003F0C4F80A
:10A6000033463A222021112003F0BEF8334640227F
:10A610002021212003F0B8F83346332220213120B5
:10A6200003F0B2F8208806281AD00023A088012859
:10A6300000D000200340B5F9140098B1012813D0D0
:10A6400017E001E002E009E0012781E7012083E74C
:10A65000012794E7012096E70126C7E70120C8E714
:10A660000123E3E72B2200E02D222021402003F0EC
:10A6700051F8208806287DD00026A08802287AD0AC
:10A680000020B5F922300640AFF2187280215948F7
:10A6900005F05AFC3346574A2021482003F0FAF9C6
:10A6A0002088062868D00026A088032866D00020CD
:10A6B000B5F930300640AFF2447280214D4805F0C4
:10A6C00043FC33464B4A2021502003F0E3F9208815
:10A6D00006287DD00026A08804287AD00020B5F96D
:10A6E00036300640AFF274728021424805F02CFCEF
:10A6F0003346404A2021602003F0CCF900233A225F
:10A700003021402003F006F800232E223021502073
:10A7100003F000F8002338A23021682003F0BAF9D2
:10A720002088072870D00026A08830B3002006407B
:10A73000334612223021012003F026F8334614223A
:10A740003021112003F020F8334637223021212018
:10A7500003F01AF833463A223021312003F014F87E
:10A760002088072865D00026A088012800D0002076
:10A77000064004E04DE04EE04FE058E04FE0B5F910
:10A780001630AFF6100280211A4805F0DDFB334683
:10A79000184A3021482003F07DF9208807284AD044
:10A7A0000026A088022848D00020B5F924300640B1
:10A7B000AFF6400280210F4805F0C6FB33460D4A34
:10A7C0003021582003F066F92088072837D001E0AF
:10A7D00027E028E00026A088032832D00020B5F921
:10A7E00032300640AFF674028021024805F0ACFB1F
:10A7F00033460AE0E40C00206870610025303275B1
:10A800002E253031750000000FE03021594A6020BC
:10A81000A1E0012631E7012033E7012644E70120CA
:10A8200046E7012657E7012059E701267CE701208A
:10A830007DE7012698E70126B3E70120B5E7012669
:10A84000C9E70120CBE7208804287DD000252B46CE
:10A8500011220021012002F097FF2B461522002132
:10A86000112002F091FF2B463F220021212002F00F
:10A870008BFF2B463A220021312002F085FF002376
:10A880003DA21946402003F005F9208805286AD02A
:10A8900000252B4611221021012002F075FF2B46C6
:10A8A00015221021112002F06FFF2B4640221021AB
:10A8B000212002F069FF2B4633221021312002F0C3
:10A8C00063FF00232FA21021402003F0E3F820882B
:10A8D00006284AD000252B463F222021012002F0E5
:10A8E00053FF2B463A222021112002F04DFF2B4628
:10A8F00040222021212002F047FF2B463322202135
:10A90000312002F041FF002321A22021402003F04A
:10A91000C1F8208807282AD000242346122230219B
:10A92000012002F031FF234614223021112002F0D1
:10A930002BFF234637223021212002F025FF3A2227
:10A9400030212346312000E00BE002F01DFF002300
:10A9500012A23021402003F09DF8BDE8F84F03F02B
:10A9600079B8012573E7012593E70125B3E70124B1
:10A97000D3E70000E40C00203A202F2F2E2F2F2F9A
:10A98000000000003A2A2F2E2F687061000000009E
:10A990002A2F2F2E2F687061000000003A2F2E2FD3
:10A9A0002F687061000000002DE9F0411B4F002569
:10A9B00004464FF48056052924D2DFE801F0030C49
:10A9C0000C1D20002069E8B11549C861458005804B
:10A9D00002F046FF16E001223146384600F09FFEA5
:10A9E0000F2307220FA1114802F0FEF80022314682
:10A9F000384600F094FE05E06088401C01E0608865
:10AA0000401E6080B4F90200002803DA0220608052
:10AA1000BDE8F0810228FBDD6580F9E70000024017
:10AA20003C0000203C52444154413E005808002064
:10AA30007CB504468021FC48FDF7FBFBFB4882788F
:10AA40004178CDE900120378F9A28021F64805F09B
:10AA50007BFA0023F44A1946184603F01BF8FA481B
:10AA6000016811F0FF4F04D0F848814208DA032250
:10AA700018E00023F6A21946682003F00BF815E051
:10AA8000F24840420A18F348824201D8022209E003
:10AA9000F14A0A44824201D2012203E0EF48814296
:10AAA00004DB00220021682002F00AFFB4F9020052
:10AAB00020B101287CD002287BD0B1E100231122F3
:10AAC0001021012002F060FE00231222102111202B
:10AAD00002F05AFE00233A221021212002F01AFE31
:10AAE0000023DFA21021282002F0D4FF00233D2202
:10AAF0001021702002F048FE0023132220210120A3
:10AB000002F042FE002314222021112002F03CFE1C
:10AB100000233A222021212002F0FCFD0023D3A2B1
:10AB20002021282002F0B6FF00231122302101202D
:10AB300002F02AFE002315223021112002F024FE0B
:10AB400000233A223021212002F0E4FD0023CAA292
:10AB50003021282002F09EFFCA48CB4CCB4D006824
:10AB6000226800F0FF41114303D1296811F0FF4F23
:10AB7000A3D0FDF708FCCDE90001C5A28021AA48B9
:10AB800005F0E2F90023A84A1021482002F082FFD4
:10AB9000C1A28021A448236805F0D6F90023A24A67
:10ABA0002021502002F076FF2868FDF7ECFB01E041
:10ABB0000CE09EE0CDE90001B8A280219A4805F0A2
:10ABC000C3F900233021984A382027E100231622B8
:10ABD0001021012002F0D8FD00231722102111209E
:10ABE00002F0D2FD002317221021212002F0CCFD1B
:10ABF000002318221021312002F0C6FD00233A2242
:10AC00001021412002F086FD0023A6A21021492038
:10AC100002F040FF00233E221021702002F0B4FD1C
:10AC2000002316222021012002F0AEFD002317226E
:10AC30002021112002F0A8FD00231722202121202D
:10AC400002F0A2FD002319222021312002F09CFDF8
:10AC500000233A222021412002F05CFD002393A230
:10AC60002021482002F016FF00231A223021012063
:10AC700002F08AFD00238FA23021112002F00AFF8A
:10AC8000002312223021312002F07EFD00233A22DF
:10AC90003021412002F03EFD002372A230214920E4
:10ACA00002F0F8FE00233D223021702002F06CFDFE
:10ACB0008248834C03681BB9206810F0FF4F7CD09A
:10ACC00075A28021584805F03FF90023564A10210B
:10ACD000582002F0DFFE2068FDF755FBCDE90001AA
:10ACE00078A28021504805F02FF900234E4A2021F8
:10ACF00093E000231B221021012002F045FD0023D8
:10AD00001C221021112002F03FFD00231D221021E2
:10AD1000212002F039FD00233A221021312002F0D7
:10AD2000F9FC002369A21021382002F0B3FE0023B1
:10AD30000E222021012002F027FD00231C222021C9
:10AD4000112002F021FD00231D222021212002F0EC
:10AD50001BFD00233A222021312002F0DBFC0023DE
:10AD60005AA22021382002F095FE00230A22302129
:10AD7000012002F009FD00231C223021112002F0E5
:10AD800003FD00231D223021212002F0FDFC0023C1
:10AD90003A223021312002F0BDFC00234BA23021A9
:10ADA000382002F077FE4C4D0A242969B1FBF4F0FB
:10ADB000B1FBF4F304FB101000E031E0009047A277
:10ADC0008021194805F0C0F80023174A10215820A7
:10ADD00002F060FE696944A2B1FBF4F0B1FBF4F348
:10ADE00004FB1010009080210F4805F0ADF80023FF
:10ADF0000D4A2021482002F04DFEA9693AA2B1FB7C
:10AE0000F4F0B1FBF4F304FB10100090802106482D
:10AE100005F09AF80023044A3021482002F03AFE57
:10AE2000BDE87C4002F016BEE40C00207C0200204D
:10AE30002020253032753A253032753A253032756A
:10AE40002020202020200000A80000200000E0405A
:10AE50002F2F2F0066660600999919BFCDCCEC40C4
:10AE600020202020202F2F2E2F0000002020202007
:10AE7000202F2F2F2552480020202F2F2F2F2E2F0D
:10AE800068706100AC00002098000020B000002035
:10AE900025352E31660000002533640025362E311D
:10AEA0006600000020202F2F2F0000002F2F2E2FB4
:10AEB0006D2F730020202020000000009C00002047
:10AEC000B400002025342E31660000002020202010
:10AED000302E306D6D0000003C0000202531752EB5
:10AEE00025303175000000002533752E2530317571
:10AEF00000000000704700008EB02C216846FDF76E
:10AF000098F9684605F030FD114C00250A220BA87F
:10AF1000616A05F0B7FFDDE90B10102906D10D4974
:10AF20000D7001B2E069826802B1904708480A4991
:10AF3000801D05F0EBFCE069C1680029E6D0884778
:10AF4000E0690649C0688842E0D005480570DDE741
:10AF50003C000020830000207C020020519B000860
:10AF6000800000204FF4006000F002BB022000F0DF
:10AF7000FFBA000005464FF47A74294603A004F096
:10AF8000D3FF204600F042FAF7E700004572726FE7
:10AF9000723A25730000000070B547F6FF74214631
:10AFA000A02000F029F805462146A42000F024F84E
:10AFB000FF2D01D1FF2817D0FF222146A02000F04D
:10AFC0003FF8FF222146A42000F03AF82146A020B5
:10AFD00000F012F805462146A42000F00DF84FF0CD
:10AFE000FF31FF2D02D003E0032070BDFF2801D008
:10AFF000084670BD002070BD70B50C46054600F0D7
:10B000004DF9284600F014F900F092F9200A00F0FA
:10B010000FF900F08DF9E0B200F00AF900F088F9BC
:10B0200000F03CF96D1CE8B200F002F900F080F984
:10B03000002000F0C7F8044600F054F9204670BD27
:10B0400070B515460C46064600F028F9304600F06B
:10B05000EFF800F06DF9200A00F0EAF800F068F966
:10B06000E0B200F0E5F800F063F9284600F0E0F8FF
:10B0700000F05EF900F036F9BDE870400A2000F0FB
:10B08000C5B92DE9F0411E4615460C46074600F0AD
:10B0900005F9384600F0CCF800F04AF9200A00F033
:10B0A000C7F800F045F9E0B200F0C2F800F040F94E
:10B0B000002406E0305D00F0BBF800F039F9641CB4
:10B0C000E4B2AC42F6D300F00DF9BDE8F0410A203D
:10B0D00000F09CB9002206E00021491CC9B22029D9
:10B0E000FBD3521CD2B28242F6D3704770B5104DDA
:10B0F0004FF4004400222146284600F010FB00F0E7
:10B1000067F900226110284600F009FB0220FFF7D2
:10B11000E1FF01222146284600F001FB0220FFF753
:10B12000D9FF21462846BDE87040002200F0F7BA5A
:10B130000004024030B50F4887B0016841F00201B9
:10B14000016000684FF4404400F0020005900120C7
:10B15000CDE90040002002900320074D039069468E
:10B16000284600F011FA01222146284600F0D7FABD
:10B1700007B030BD1C3802400004024070B5104DCD
:10B180004FF4004400222146284600F0C8FA00F09F
:10B190001FF901229103284600F0C1FA0220FFF7AF
:10B1A00099FF01222146284600F0B9FA0220FFF754
:10B1B00091FF21462846BDE87040002200F0AFBA5A
:10B1C000000402402DE9F0478046002400F0E2F838
:10B1D000164F00254FF400464FF4804900223146B7
:10B1E000384600F09CFA0220FFF774FF0122314636
:10B1F000384600F094FA6006040E4946384600F0DE
:10B2000089FA08B1641CE4B20120FFF763FF6D1CEA
:10B21000EDB2082DE2D3B8F1000F04D0FFF766FFBE
:10B220002046BDE8F087FFF7A9FFF9E700040240D8
:10B230002DE9F041054600F0CBF8174F4FF40046DA
:10B2400000223146384600F06AFA00244FF4804864
:10B25000280601D5012200E000224146384600F0D0
:10B260005EFA6806050E0220FFF734FF0122314620
:10B27000384600F054FA0220FFF72CFF0022314636
:10B28000384600F04CFA0220FFF724FF641CE4B2B9
:10B29000082CDDD3BDE8F0810004024070B500F059
:10B2A00097F801220E4D94032146284600F037FA04
:10B2B0000122D6033146284600F031FA0420FFF778
:10B2C00009FF00222146284600F029FA0420FFF752
:10B2D00001FF31462846BDE87040002200F01FBA49
:10B2E0000004024070B500F073F8104D4FF40044B4
:10B2F00000222146284600F012FA6610002231464C
:10B30000284600F00CFA0420FFF7E4FE0122214653
:10B31000284600F004FA01223146284600F0FFF9E1
:10B32000BDE870400420FFF7D5BE000000040240D5
:10B330002DE9F041002400F02DF80122144D960370
:10B340003146284600F0EBF90120FFF7C3FE012249
:10B35000D7033946284600F0E2F90120FFF7BAFE8C
:10B3600008E0641CE4B2FA2C04D9FFF7BBFF01200B
:10B37000BDE8F0813146284600F0CCF90028F0D134
:10B3800000223946284600F0CAF90020F0E7000004
:10B39000000402400C4800B5016887B041F002018A
:10B3A00001600068694600F0020005904FF480409B
:10B3B000009000200190029003200390034800F0C9
:10B3C000E3F807B000BD00001C3802400004024052
:10B3D0000C4800B5016887B041F0020101600068C7
:10B3E000694600F0020005904FF480400090012073
:10B3F00001900020029003200390034800F0C4F85D
:10B4000007B000BD1C3802400004024031B500F016
:10B410008BF9044600F088F90099001B8842F9D3A3
:10B4200038BD0000F8B50646072000F0E3F92820F3
:10B4300000F0E0F9002000904A480099491C009172
:10B440008142FAD3484D3146284600F063F9474C13
:10B45000002864D11021284600F05CF928B9606A00
:10B4600018B16422002105F055FD2021284600F086
:10B4700051F928B9606A18B16422022105F04AFD29
:10B480004021284600F046F958B30027802128467D
:10B4900000F040F9012800D00020074205D0606A82
:10B4A00018B16422032105F035FD8021284600F003
:10B4B00031F9C0B100274021284600F02BF90128BE
:10B4C00000D00020074205D0606A18B16422042130
:10B4D00005F020FD4FF48071284600F01BF920B1E3
:10B4E00009E00127D2E70127E5E7606A18B1642285
:10B4F000012105F00FFD8021284600F00BF918B35B
:10B5000000274021284600F005F9F8B10020074245
:10B5100005D0606A18B16422052105F0FBFC4FF4E8
:10B520000067BE4208D13946284600F0F3F878B1EA
:10B530003946284600F0EEF8072000F066F9BDE82D
:10B54000F840282000F061B90127DAE70120DEE7A2
:10B550002069401C20616069401C6061A069401C3A
:10B56000A061E9E7FFFF0100000002403C0000206D
:10B57000044910B50A68024202D00860FFF752FF82
:10B5800010BD0000140401402DE9F84FDFF864B14C
:10B5900000234FF0010C4FF0030A4FF00F090BF19D
:10B5A000040EA0E00CFA03F6324072D04C68022C74
:10B5B00001D0122C0ED1DC0800EB8408D8F8204012
:10B5C0005D07EF0E09FA07F5AC430D69BD40254351
:10B5D000C8F8205007685D0091F804800AFA05F465
:10B5E00008F00308A74308FA05F848EA0708C0F876
:10B5F00000804F68012F05D0022F03D0112F01D0FA
:10B60000122F11D18768D1F80C80A74308FA05F8EA
:10B6100048EA0708C0F808804768B7430E79C6F3C0
:10B6200000169E403E434660C668A6438C68AC4008
:10B630003443C4604C68E40054D52F4C256845F071
:10B6400001052560246823F0030504F0010400943B
:10B650002A4C2544AF689C07240F09FA04F6B74327
:10B66000274EB04201D1002615E0264EB04201D14E
:10B67000012610E0244EB04201D102260BE0234EF9
:10B68000B04201D1032606E0214EB04202D1042689
:10B6900001E027E00526A6403E43AE60DBF800400F
:10B6A0005D464E689443F60300D514432C60DEF8E3
:10B6B000004075464E689443B60300D514432C6091
:10B6C0000C4D08352C684E689443F60200D514439F
:10B6D0002C60084D0C352C684E689443B60200D59A
:10B6E00014432C605B1C0A6832FA03F47FF45AAFEF
:10B6F000BDE8F88F000401402038024000000140FE
:10B70000000002400004024000080240000C024019
:10B71000001002400069084000D0012070470AB1C3
:10B72000816170470904FBE7014800687047000029
:10B730000C01002070B5040011D021684CF6CC40FB
:10B740000860216845F255500860D4E90001416065
:10B750002168A0688860FFF7E7FF054609E001203F
:10B7600070BD00BFFFF7E0FF401B302801D9032068
:10B7700070BD2068C0680028F4D121684AF6AA206C
:10B780000860002070BD00684AF6AA210160002010
:10B790007047000002480168491C016070470000C2
:10B7A0000C010020094810B5016841F00401016056
:10B7B000016841F002010160032000F051F80F2000
:10B7C00000F006F800F015F8002010BD003C024023
:10B7D00010B5044600F040FA4FF47A71B0FBF1F076
:10B7E00001F057F900222146501E00F019F8002000
:10B7F00010BD704700F01F020121914040098000F8
:10B8000000F1E020C0F88011704700F01F02012114
:10B8100091404009800000F1E020C0F8001170471D
:10B82000F0B40E4B1B680C46C3F30223C3F10705AB
:10B83000042D00D90425191D072901D2002300E099
:10B84000DB1E012606FA05F1491E214099409E4063
:10B85000761E16403143F0BC01F04CBF0CED00E009
:10B86000064900F0070208684FF6FF03184040EA57
:10B870000220034A10430860704700000CED00E00E
:10B880000000FA05BFF34F8F04480168044A01F431
:10B89000E06111430160BFF34F8FFEE70CED00E064
:10B8A0000400FA050248006800F4C0507047000028
:10B8B000007000400120010291FAA1F1024AB1FAA0
:10B8C00081F142F82100704700000E42094A1368D6
:10B8D00023F00303034313600748026822F00402C5
:10B8E0000260012903D040BF20BF20BF704730BF96
:10B8F000704700000070004010ED00E02DE9F84FA7
:10B9000004460068C10701D1800778D5DFF8688157
:10B910000027D8F80000C0000BD4D8F8001041F080
:10B920008051C8F80010D8F80000012700F08050BE
:10B930000090524D2868C00510D4286840F48070EB
:10B940002860FFF7F1FE064605E000BFFFF7ECFEBA
:10B95000801B64285CD82868C005F7D5464E243E75
:10B960003068616800F0C04001F0C042824204D1FA
:10B97000A26802F0C042824209D0C1F3014003280C
:10B9800005D13068800302D50120BDE8F88F3A4D1B
:10B990001035286810F4403052D001F44031814213
:10B9A00002D02178C90707D1A16801F44031814252
:10B9B00046D02078800743D528684FF4000292FAD9
:10B9C000A2F1B1FA81F14FEA810C2D494FF0010A41
:10B9D0008C4420F44030CCF880A692FAA2F2B2FA5D
:10B9E00082F201EB82010023C1F880362860C00595
:10B9F00026D5FFF799FE81464FF4007B0AE038E038
:10BA0000FFF792FEA0EB090141F28830814201D993
:10BA10000320BAE79BFAABF0B0FA80F040F04001A7
:10BA2000BAEB511F01D1316800E029689BFAABF2F3
:10BA3000B2FA82F202F01F020AFA02F00142DFD0EB
:10BA40006068C0F30141032906D1316800F0C040AD
:10BA500021F0C041014331602868616801F4403140
:10BA6000084328602FB1D8F8001021F08051C8F8A1
:10BA70000010002089E700002438024000700040D8
:10BA8000000047422DE9F047DFF8BC8105460E462D
:10BA9000D8F8000000F00100B04214D2012E05D108
:10BAA000D8F8001041F00401C8F80010D8F80010D0
:10BAB00021F001013143C8F80010D8F8000000F06F
:10BAC0000100B04271D12878604C800705D520680C
:10BAD000A96820F0F000084320602878C00771D0E2
:10BAE0005A4A5A4B69680120083A2C33022910D06F
:10BAF00003292ED001292FD05FEA402797FAA7FC0F
:10BB0000BCFA8CFC4CF0200C5FEA5C1C04D0126880
:10BB100003E04FF40037F1E71A6897FAA7F3B3FA96
:10BB200083F303F01F039840024262D0206820F0A4
:10BB3000030008432060FFF7F7FD6968074641F2FC
:10BB40008830022910D003291CD00129814626D033
:10BB500034E04FF00077D1E70227CFE7FFF7E4FDAD
:10BB6000C11B494501D926E081462068C0F3810008
:10BB70000228F3D126E000BFFFF7D6FDC11B4945DF
:10BB800001D918E081462068C0F381000328F3D171
:10BB900018E000BFFFF7C8FDC11B49450BD820685E
:10BBA000C0F381000128F5D10CE022E0FFF7BCFDD5
:10BBB000C11B494502D90320BDE8F087206810F079
:10BBC0000C0FF3D1D8F80010404601F00101B1424A
:10BBD00011D9012E03D1016841F00401016001680F
:10BBE00021F0010131430160006800F00100B04222
:10BBF00001D00120E0E72878400705D52068E968F2
:10BC000020F4E060084320602878000706D520680B
:10BC1000296920F4605040EAC100206000F052F829
:10BC20002168F02292FAA2F201F0F001B2FA82F257
:10BC3000D140074A515CC840064908600F20FFF711
:10BC4000C7FD0020B8E70000003C02400838024071
:10BC50006525010838000020014800687047000091
:10BC60003800002008480949006809684FF4E0627C
:10BC700092FAA2F201F4E061B2FA82F2D140044AEF
:10BC8000515CC8407047000038000020083802406E
:10BC90007525010808480949006809684FF4605291
:10BCA00092FAA2F201F46051B2FA82F2D140044A4F
:10BCB000515CC8407047000038000020083802403E
:10BCC000752501081E4A116801F00C00042813D0E4
:10BCD000082813D00C2813D0101F006800F460410E
:10BCE0004FF4604090FAA0F0B0FA80F0C1404FF4F9
:10BCF0000040491C884070471248704712487047FE
:10BD00004FF4701393FAA3F301F47010B3FA83F3B2
:10BD1000D8400E4B01F440011268185C4FF4400308
:10BD200093FAA3F3B3FA83F3D940491CD20301D5A4
:10BD3000054A00E0034A5043B0FBF1F070470000B1
:10BD4000083802400024F40000127A005C25010843
:10BD50002DE9F84F07460078FB4EFC4DC0074FF029
:10BD6000010428D0F848083001684FF40038C1F3C6
:10BD70008101022907D00168C1F3810103291BD188
:10BD80000068C00318D598FAA8F0B0FA80F040F027
:10BD90002000400901D0306800E0286898FAA8F136
:10BDA000B1FA81F101F01F0104FA01F108425CD0FF
:10BDB000786800287BD058E0786801280AD008B15C
:10BDC000052811D0306820F480303060306820F4CD
:10BDD000802002E0306840F480303060786828B31A
:10BDE000FFF7A2FC81460BE0306840F48020306011
:10BDF000F0E700BFFFF798FCA0EB0900642872D8B9
:10BE000098FAA8F0B0FA80F040F02000400901D084
:10BE1000306800E0286898FAA8F1B1FA81F101F0E1
:10BE20001F0104FA01F10842E4D01EE0FFF77CFC98
:10BE3000814605E0FFF778FCA0EB09006428DED816
:10BE400098FAA8F0B0FA80F040F02000400901D044
:10BE5000306800E0286898FAA8F1B1FA81F101F0A1
:10BE60001F0104FA01F10842E4D13878DFF8E082DA
:10BE700080074FF0000B4FF002095FD5B248083041
:10BE80000168C1F38101012907D00168C1F3810173
:10BE900003291CD10068C00319D499FAA9F0B0FA9B
:10BEA00080F040F02000400902D0306801E086E0D8
:10BEB000286899FAA9F1B1FA81F101F01F0104FA99
:10BEC00001F108422BD0F868012878D127E0F86802
:10BED000A8B394FAA4F0B0FA80F048F82040FFF735
:10BEE00023FC824606E066E1FFF71EFCA0EB0A0099
:10BEF000022884D899FAA9F1B1FA81F141F0200120
:10BF0000490901D0316800E0296899FAA9F0B0FA2E
:10BF100080F000F01F0004FA00F00142E4D08A48EB
:10BF2000001D01684FF4F85393FAA3F33A69B3FA8A
:10BF300083F321F4F8519A401143016025E0FFE7B3
:10BF400094FAA4F1B1FA81F148F821B0FFF7ECFBC3
:10BF5000824605E0FFF7E8FBA0EB0A000228C8D8FC
:10BF600099FAA9F0B0FA80F040F02000400901D021
:10BF7000306800E0286899FAA9F1B1FA81F101F07E
:10BF80001F0104FA01F10842E4D138784FF4007A35
:10BF9000C0067CD56C480830006810F00C0F0FD03C
:10BFA000B9694FF48070002972D090FAA0F0B0FA0D
:10BFB00080F048F82040FFF7B7FB00907EE087E074
:10BFC0009AFAAAF0B0FA80F040F02000400901D0BF
:10BFD000306800E028689AFAAAF1B1FA81F101F01C
:10BFE0001F0104FA01F1084202D0B86900286FD09D
:10BFF0005548396A001D006800F4604081421AD932
:10C00000084602F007FA002862D14F48001D016877
:10C010003A6A21F460411143016001684FF07F43A7
:10C0200093FAA3F3FA69B3FA83F321F07F419A40BC
:10C030001143016018E04448001D026822F4604288
:10C040000A43026001684FF07F4393FAA3F3FA6951
:10C05000B3FA83F321F07F419A4011430160386ABB
:10C0600002F0D8F90028CFD14FF4604191FAA1F144
:10C07000386AB1FA81F1C8404FF40041401C814058
:10C08000314808300068F02200F0F00001E070E074
:10C0900040E092FAA2F2B2FA82F2D0402D4A105C4D
:10C0A000C1402D4801600F20FFF792FB61E000BF07
:10C0B000FFF73AFB0099401A02287CD89AFAAAF0B6
:10C0C000B0FA80F040F02000400902D0306801E072
:10C0D000BCE128689AFAAAF1B1FA81F101F01F01D6
:10C0E00004FA01F10842E3D01748001D01683A6ADA
:10C0F00021F460411143016001684FF07F4393FADE
:10C10000A3F3FA69B3FA83F321F07F419A40114314
:10C1100001602EE090FAA0F0B0FA80F048F820B06C
:10C12000FFF702FB009005E0FFF7FEFA0099401AC6
:10C130000228C2D89AFAAAF0B0FA80F040F02000A3
:10C1400040090BD030680AE0003802403438024021
:10C1500000004742652501083800002028689AFA47
:10C16000AAF1B1FA81F101F01F0104FA01F10842CC
:10C17000DAD13878000753D5786948B394FAA4F037
:10C18000B0FA80F008EB8000C0F88046FFF7CCFAE8
:10C19000009005E0FFF7C8FA0099401A02288CD8F1
:10C1A00099FAA9F0B0FA80F040F04000B4EB501FCB
:10C1B00002D1306801E08EE0286899FAA9F1B1FA5D
:10C1C00081F101F01F0104FA01F21042E2D027E0F0
:10C1D00094FAA4F1B1FA81F108EB8101C1F880B6BB
:10C1E000FFF7A2FA009005E0FFF79EFA0099401AC7
:10C1F000022870D899FAA9F0B0FA80F040F0400017
:10C20000B4EB501F01D1306800E0286899FAA9F119
:10C21000B1FA81F101F01F0104FA01F21042E3D1F9
:10C22000387840077BD59B484FF000090068C00074
:10C230000AD49848016841F08051016000684FF0CD
:10C24000010900F08050009093480168C90511D49D
:10C25000016841F480710160FFF766FA009005E023
:10C26000FFF762FA0099401A642834D88A480068B7
:10C27000C005F5D5B86801280AD008B1052811D045
:10C28000286820F480702860286820F4806002E02C
:10C29000286840F480702860B86848B3FFF744FA13
:10C2A00000900DE0286840F480602860F0E700BF4F
:10C2B000FFF73AFA0099411A41F2883081420AD8D0
:10C2C0009AFAAAF0B0FA80F040F04000B4EB501FA8
:10C2D00002D1306801E095E028689AFAAAF1B1FA33
:10C2E00081F101F01F0104FA01F21042E0D022E0D6
:10C2F000FFF71AFA009007E0FFF716FA0099411AC3
:10C3000041F2883081427DD89AFAAAF0B0FA80F0E2
:10C3100040F04000B4EB501F02D1306801E012E061
:10C3200028689AFAAAF1B1FA81F101F01F0104FA22
:10C3300001F21042E0D1B9F1000F04D05548016874
:10C3400021F080510160786AE8B3DFF84891A9F1E3
:10C350001C09D9F80010C1F38101032976D0022805
:10C360004FF080714FF0007A58460BD091FAA1F14E
:10C37000B1FA81F148F82100FFF7D6F9B046074637
:10C3800056466DE04FF0807191FAA1F1B1FA81F15A
:10C390008A0042495050FFF7C7F9B34680465646D7
:10C3A00006E000BFFFF7C0F9A0EB0800022854D850
:10C3B00096FAA6F0B0FA80F040F02000400903D0D1
:10C3C000DBF8000001E061E0286896FAA6F1B1FA16
:10C3D00081F101F01F0104FA01F10842E2D1D7E92D
:10C3E0000A103A6BD9F80030014323F47D031A4355
:10C3F0001143C9F800104FF0807090FAA0F0B0FA25
:10C4000080F000E029E0810024480C50FFF78CF90F
:10C41000074604E0FFF788F9C01B02281DD896FAEA
:10C42000A6F0B0FA80F040F02000400902D0DBF81E
:10C43000000000E0286896FAA6F1B1FA81F101F057
:10C440001F0104FA01F10842E4D01FE020E000BF20
:10C45000FFF76AF9C01B022802D90320BDE8F88F54
:10C4600096FAA6F0B0FA80F040F02000400902D021
:10C47000D8F8000000E0286896FAA6F1B1FA81F138
:10C4800001F01F0104FA01F10842E1D10020E5E7C3
:10C490000120E3E7243802400070004000004742DA
:10C4A0007047000003480069002801D004F0CCBDAB
:10C4B000704700006400002010B5044600688168E1
:10C4C000C9040CD5C068C00509D52046FFF7EAFFAE
:10C4D0002068C16801F0800161F4C071C16020680A
:10C4E000816889040CD5C068800509D52046FFF70E
:10C4F000D7FF2068C16801F0800161F42071C1603C
:10C5000003494FF4003008600120607710BD00003F
:10C510001404014010B500680B4641680D48014005
:10C52000080CD870C1F304245C7001F03F049C70C7
:10C53000C1F34231197052B901F0AEFFD87058788A
:10C5400001F0AAFF5870987801F0A6FF98700020BB
:10C5500010BD00003FFFFF0010B50C460168896A5E
:10C5600089B2616001680969C1F30E01A1600068C8
:10C5700001680E480140C1F305402070C1F3062355
:10C58000637001F07F03A370402303EA1141E1705F
:10C5900052B901F081FF2070607801F07DFF60707A
:10C5A000A07801F079FFA070002010BD7F7F7F0090
:10C5B00070B5040002D0607F10B106E0012070BDAC
:10C5C00000202077204600F041F8022060772168A3
:10C5D000CA204862216853204862204601F070FF5B
:10C5E000FF210028206803D0416204206077E5E73E
:10C5F0008268154B1A40826022689068636818430D
:10C60000D4E904352B43184390602268E068106138
:10C6100020680269238942EA034202612068C268F5
:10C6200022F08002C2602068026C22F48022026440
:10C630002068026CA3691A430264206841620120E9
:10C640006077002070BD0000BFFF8FFF10B500684D
:10C650001E4992B0884236D11D48016841F0805190
:10C660000160006800F080501090FFF723F90C2063
:10C670000090002001240990029405946846FFF779
:10C6800067FB10B113A0FEF775FC4FF48030CDE9C5
:10C690000D400DA8FFF732F910B113A0FEF76AFCA8
:10C6A0004FF4800090FAA0F01849B0FA80F001EB46
:10C6B0008000C0F8804600220A212920FFF7B0F848
:10C6C0002920FFF7A2F812B010BD0000002800409A
:10C6D000243802404F7363436F6E6669672066615A
:10C6E000696C65640D0A000052544320636C6F63EB
:10C6F0006B20736F7572636520636F6E6669672068
:10C700006661696C65640D0A000000000000474224
:10C710002DE9F05F0446007F0D46012848D0012036
:10C720002077022060772068002780684FEA406009
:10C73000EAB3002859DA287801F0AEFE95F8200017
:10C7400001F0AAFEA8782978EA7840EA01406978E1
:10C75000090241EA0241084395F8201040EA0166C7
:10C76000E869A969064368690643686840EA010800
:10C770002168CA204862216853204862686AFF2500
:10C78000B0F5807F20684FF0030B4FF47A7A816810
:10C790002DD021F4007181602068C16801F0800112
:10C7A00061F42071C160FEF7BFFF814655E002E0F1
:10C7B0000220BDE8F09F002800DBEF70287801F030
:10C7C00074FE0604687801F070FE46EA0026A87838
:10C7D00001F06BFE0643E87846EA004695F8200033
:10C7E00001F063FE46EA0066BAE7EF70A6E721F4BF
:10C7F000807181602068C16801F0800161F4C071BE
:10C80000C160FEF791FF814606E000BFFEF78CFF96
:10C81000A0EB0900504519D82068C068C007F5D0C2
:10C820002068C6612168C1F844802068816841F4AD
:10C83000807181602068816841F480511FE000BFF1
:10C84000FEF772FFA0EB0900504506D9206845624B
:10C8500084F81DB027770320ABE72068C068800705
:10C86000EED5206806622168C1F84880206881689A
:10C8700041F4007181602068816841F40051816059
:10C880000848016841F40031016006480830016839
:10C8900041F400310160206845620120607727770C
:10C8A000002086E7000401402DE9F0470446007FA0
:10C8B0000B46012825D04FF0010984F81C90022076
:10C8C0006077587802B301F0E7FD987801F0E4FD55
:10C8D0009878D97840EA014558781978000240EAFA
:10C8E000413005432168CA204862216853204862CC
:10C8F000204601F0E5FD0026FF274FF0040838BB75
:10C9000019E00220BDE8F087C10603D500F0EF0072
:10C910000A305870D87801F0C8FD0204587801F048
:10C92000C4FD42EA0022987801F0BFFD0243187866
:10C9300042EA4035D6E70D4805402068456020684A
:10C94000C16821F08001C160204600F085F830B157
:10C950002068476284F81D8026770120D2E720688E
:10C96000476284F81D9026770020CBE73FFFFF0049
:10C970002DE9F0470446007F0D46012811D04FF005
:10C98000010A84F81CA002206077206800268068D5
:10C990004FEA406042B100281ADA287801F07CFDA5
:10C9A00017E00220BDE8F087002800DBEE70287851
:10C9B00001F07BFD0204687801F077FD42EA002275
:10C9C000A87801F072FD0243E87842EA00470AE0E5
:10C9D000EE70A878297840EA01476878E978000283
:10C9E00040EA014007432168CA2048622168532079
:10C9F0004862204601F064FD4FF0FF084FF0040943
:10CA0000C0B914480740206807602068816821F495
:10CA100080218160D5E90301084321688A681043B9
:10CA200088602068C16821F08001C160204600F064
:10CA300013F838B12168C1F8248084F81D90267756
:10CA40000120AFE72168C1F8248084F81DA0267773
:10CA50000020A7E77F7F7F0070B5044600688168EB
:10CA6000890614D4C16821F0A001C160FEF75CFE04
:10CA700005464FF47A7606E0FEF756FE401BB042BC
:10CA800001D9032070BD2068C0688006F4D500205D
:10CA900070BD10B5401EB0F1807F01D3012010BDE4
:10CAA0004FF0E02460610F21601700F023FE0020AA
:10CAB000A06107202061002010BD704770B5040000
:10CAC00004D094F83900002510B106E0012070BDB3
:10CAD00084F83850204600F021F8022084F839000C
:10CAE0002068C16821F40051C160204602F062FF55
:10CAF0002068016921F4904101612068416921F0B9
:10CB00002A0141612068C16841F40051C160E563B8
:10CB1000012084F83900002070BD0000F0B52D4FD1
:10CB200002682D4902230124032507262B4887B0DC
:10CB3000BA4223D10A1D176847F48047176012686C
:10CB400002F4804205920A6842F001020A60096814
:10CB500001F00101059169028DE87A006946FEF74E
:10CB600013FD1F480068C16841F02001C160002228
:10CB70000E212520FEF754FE252027E0194FBA424A
:10CB800026D1154A0832176847F400371760126833
:10CB900002F4003205920A6842F001020A60096854
:10CBA00001F0010105910C218DE87A006946FEF73C
:10CBB000EBFC0B4840300068C16841F02001C160C7
:10CBC00000220E212620FEF72BFE2620FEF71DFE5A
:10CBD00007B0F0BD003801401C38024000000240A0
:10CBE00018080020004400402DE9F047044690F862
:10CBF000390099460D46012801D0222858D12DB37D
:10CC000022B394F83800012852D0012684F8386005
:10CC10000027E76394F8390022281AD05FF0120049
:10CC200084F83900A284E2844FF48058E08C4B46AB
:10CC3000401EE084A0684FF0000240454FF08001A4
:10CC4000204613D103F006F808BB04E00120BDE83C
:10CC5000F0873220E4E728882168C0F308004860A4
:10CC6000206908B16D1C08E0AD1C06E002F0F2FF7F
:10CC700068B9216815F8010B4860E08C0028D5D10F
:10CC80004B4600224021204602F0E4FF08B1032079
:10CC9000DDE794F83900322806D084F8396000BF07
:10CCA00084F838700020D2E7222084F83900F7E7B2
:10CCB0000220CCE7FEE700002DE9F0413E4A0025C6
:10CCC000044605295FD2DFE801F0036D0E686A00B3
:10CCD0002069002857D0D06145800221A0F80010BB
:10CCE00000F0BEFD4FE00122DFF8D0801703394687
:10CCF0004046FEF714FDB4F900004FF47A7630B1E7
:10CD000001280ED0022816D003281ED029E0334671
:10CD100007222BA12C48FFF767FF3346072228A1E3
:10CD20001CE03346072229A12748FFF75DFF334661
:10CD3000072226A112E03346072226A12248FFF748
:10CD400053FF3346072223A108E03346072223A1DD
:10CD50001D48FFF749FF3346072220A12148FFF76E
:10CD600043FF002239464046FEF7D9FCB4F90000E3
:10CD700018B1002101280ED000E00121002211434A
:10CD800001D0401C2080B4F9000000280FDA0320F5
:10CD90002080BDE8F0810122F1E72088F1E72088BA
:10CDA000401EEFE71048D0614580058098E70328D2
:10CDB000EFDD2580EDE700003C0000200000024090
:10CDC0003C424547494E3E00580800203C434C4FEA
:10CDD00053453E003C4E313131333E003C514B4FC8
:10CDE0004E473E0018080020BC02002070B50446E3
:10CDF000008800287DD000252B462C220021012010
:10CE000000F0C2FC2B462D220021112000F0BCFCBA
:10CE10002B462A220021212000F0B6FC2B462E2290
:10CE20000021312000F0B0FC2B462F2200214120B0
:10CE300000F0AAFC2B4630220021512000F0A4FC77
:10CE40002088012877D000252B463122102101208F
:10CE500000F09AFC2B4632221021112000F094FCA5
:10CE60002B462A221021212000F08EFC2B462E2258
:10CE70001021312000F088FC2B462F221021412068
:10CE800000F082FC2B4630221021512000F07CFC67
:10CE90002088022851D000252B4633222021012052
:10CEA00000F072FC2B4634222021112000F06CFC93
:10CEB0002B4635222021212000F066FC2B46332210
:10CEC0002021312000F060FC00231EA220214120FF
:10CED00000F0E0FD2088032831D0002423463622CC
:10CEE0003021012000F050FC3021234617A21120F0
:10CEF00000E01DE000F0CEFD23462322302131204A
:10CF000000F042FC234624223021412000F03CFC6A
:10CF1000234625223021512000F036FC002309A2AF
:10CF20003021602000F0B6FDBDE8704000F092BDF9
:10CF3000012561E7FFE7012586E70125ACE701242C
:10CF4000CCE70000202A2A2A0000000050414D535F
:10CF50000000000008B505208DF800009DF80000D5
:10CF6000002803D09DF80000401EF5E708BD000032
:10CF700070B501F0E1FA0E4D4FF400540022214645
:10CF80002846FEF7CCFB002261102846FEF7C7FBBF
:10CF9000FFF7E0FF012221462846FEF7C0FBFFF71E
:10CFA000D9FF21462846BDE870400022FEF7B7BBF6
:10CFB0000004024010B500F0F3F8A22000F0B6F82B
:10CFC00000F036F9012858D0002000F0AFF800F04A
:10CFD0002FF9012851D0002000F0A8F800F028F91E
:10CFE00001284AD0132000F0A1F800F021F901280F
:10CFF00043D000F0D5F8A22000F098F800F018F91E
:10D0000001283AD0092000F091F800F011F9012828
:10D0100033D0802000F08AF800F00AF901282CD0E3
:10D02000802000F083F800F003F9012825D080204B
:10D0300000F07CF800F0FCF801281ED0802000F001
:10D0400075F800F0F5F8012817D0002000F06EF810
:10D0500000F0EEF8012810D0822000F067F800F010
:10D06000E7F8012809D0012000F060F800F0E0F8AE
:10D07000012802D000F0B8F8002010BD70B501F012
:10D080005BFA0E4D4FF40054002221462846FEF76D
:10D0900046FB012211032846FEF741FBFFF75AFF2A
:10D0A000012221462846FEF73AFBFFF753FF2146AF
:10D0B0002846BDE870400022FEF731BB0004024064
:10D0C0002DE9F0470825002401F018FA0122DFF8C5
:10D0D0005880160331464046FEF721FBB146AF02A9
:10D0E000464616E06006040E002239463046FEF73A
:10D0F00016FBFFF72FFF012239463046FEF70FFBE4
:10D10000FFF728FF49463046FEF704FB08B144F01C
:10D1100001046D1EEDB2E5D2002239463046FEF71D
:10D12000FEFA2046BDE8F087000402402DE9F041F8
:10D130000646082401F000FA4FF48058A702174D64
:10D140001DE000BFFEF7EBFA300601D5012200E03A
:10D15000002241462846FEF7E2FA7006060EFFF767
:10D16000F9FE012239462846FEF7D9FAFFF7F2FE0A
:10D17000002239462846FEF7D2FAFFF7EBFE641E7E
:10D18000E4B24FF0000239462846DBD2FEF7C7FA78
:10D1900041462846BDE8F041FEF7BCBA0004024013
:10D1A00070B501F0C9F901220E4D1403214628463D
:10D1B000FEF7B5FA0122560331462846FEF7AFFACC
:10D1C000FFF7C8FE002221462846FEF7A8FAFFF71F
:10D1D000C1FE002231462846FEF7A1FABDE87040A4
:10D1E000FFF7B8BE0004024070B501F0A5F90122B6
:10D1F0000E4D540321462846FEF791FA6610002290
:10D2000031462846FEF78BFAFFF7A4FE012231468D
:10D210002846FEF784FAFFF79DFE002221462846A5
:10D22000FEF77DFABDE87040FFF794BE00040240AF
:10D2300070B501F063F9184C4FF4005500222946EF
:10D240002046FEF76CFAFFF785FE012216033146F1
:10D250002046FEF764FAFFF77DFE012229462046AC
:10D26000FEF75DFAFFF776FE31462046FEF752FAEA
:10D2700040B1FFF76FFE002229462046FEF74FFA25
:10D28000012070BDFFF766FE002229462046FEF70A
:10D2900046FA002070BD0000000402400548044921
:10D2A00001600421416040F6FF718160FEF742BADF
:10D2B00000300040B80800202DE9F04F434887B007
:10D2C000016841F004010160016801F00401059169
:10D2D000016841F020010160016801F02001059121
:10D2E000016841F001010160016801F0010105914F
:10D2F000016841F0020101600068DFF8D4A000F08D
:10D30000020040F6FF740590012221465046FEF7C8
:10D3100006FADFF8C0B0012211465846FEF7FFF9C1
:10D32000671C002239465846FEF7F9F94FF4405879
:10D33000012241465046FEF7F2F94FF440490122DE
:10D3400049465046FEF7EBF9009401AA0124002556
:10D35000032682E8700069465046FEF715F901AAD7
:10D36000009482E8700069465846FEF70DF901AA5C
:10D37000CDF8008082E8700069465046FEF704F957
:10D3800001AACDF8009082E8700069465046FEF789
:10D39000FBF801AA009782E8700069465846FEF73C
:10D3A000F3F8E00200900C48CDE9010469465846C4
:10D3B000FEF7EAF800220A212820FEF731FA282099
:10D3C000FEF723FA07B0BDE8F08F00001C380240DA
:10D3D00000040240000002400000211010B5144873
:10D3E0008AB012490024C0E900147F218160FF2126
:10D3F000C0E9031444618461FFF7DAF84FF48070E8
:10D40000099001208DF82000800707904FF08030B0
:10D4100005904FF0706001940690009400226946D8
:10D420000348FFF775F90AB010BD0000002800405E
:10D430009808002070B5124A00250446052912D22A
:10D44000DFE801F01118030B0E00606958B1D061DC
:10D450004580058000F004FA05E02088401C01E0CA
:10D460002088401E2080B4F90000002804DA022041
:10D47000208070BD0348EAE70228FADD258070BDF0
:10D480003C000020BC0200207CB5824E04460025F2
:10D49000F37881A28021824802F056FD0023804A61
:10D4A0001946042000F0F6FA002308221946142039
:10D4B00000F06AF9737878A28021794802F044FD7F
:10D4C0000023774A1946242000F0E4FA00230922B9
:10D4D0001946342000F058F9B3786FA280217048C3
:10D4E00002F032FD00236E4A1946442000F0D2FAC1
:10D4F00000230A221946542000F046F9002369A2AD
:10D500003021184600F0C6FA3021002366A20846F2
:10D5100000F0C0FA002363A23021702000F0BAFAB4
:10D52000002363A22021184600F0B4FA002360A271
:10D530002021502000F0AEFA5F4882784178CDE992
:10D54000001203785DA28021554802F0FDFC002303
:10D55000534A1021184600F09DFA00235BA21021C7
:10D56000482000F097FA5B484BA2802103784C4892
:10D5700002F0EAFC00234A4A1021682000F08AFAEF
:10D580005548006810F0FF4F04D05449884208DA2B
:10D59000032218E0002352A21946682000F07AFA0C
:10D5A00015E04E49494242184E498A4201D80222AA
:10D5B00009E04D4A02448A4201D2012203E04B496C
:10D5C000884204DB00220021682000F079F92088DD
:10D5D000B0B3002633460D223021102000F0D4F8DD
:10D5E00033460E223021202000F0CEF8208801287A
:10D5F00029D0002633460B222021302000F0C4F829
:10D6000033460C222021402000F0BEF8208802285A
:10D610001BD0002633460F223021502000F0B4F8F2
:10D62000334610223021602000F0AEF82248B4F9D1
:10D630000010403081B1012909D002290CD109E044
:10D64000FFE70126C6E70126D4E70126E2E71A48EC
:10D65000883001E018485830606100222946642073
:10D6600000F014F900222946652000F00FF900228D
:10D670002946662000F00AF900222946672000F0BA
:10D6800005F96D1CEDB2102DE7D3BDE87C4000F02C
:10D69000E1B9000042000020253032750000000092
:10D6A000E40C0020202000002020202000000000AA
:10D6B00020202020202000007C0200202025303265
:10D6C000753A253032753A253032750020202053C6
:10D6D00030304D0082000020A80000200000E04013
:10D6E0002F2F2F0066660600999919BFCDCCEC400C
:10D6F000FEE770470907090E002806DA00F00F0060
:10D7000000F1E02080F8141D704700F1E02080F85F
:10D71000001470472DE9F04F884601F03F04203A8D
:10D7200000F07F091749D0B29B46002601EB001A92
:10D730005FF000071AF80650BBF1000F4FEAC57002
:10D7400002D018B1002202E00028FBD001222146BD
:10D75000484600F09BF8641CE4B26D08A4EB080096
:10D76000102809D07F1CFFB2082FE5D3761CF6B233
:10D77000102EDDD3BDE8F08F09F10100444600F022
:10D78000FF09F3E7D82501082DE9F04F00F07F09E4
:10D7900018489B46884601F03F04002600EB421AD9
:10D7A0005FF000071AF80650BBF1000F4FEAC57092
:10D7B00002D018B1002202E00028FBD0012221464D
:10D7C000484600F063F8641CE4B26D08A4EB08005E
:10D7D000102809D07F1CFFB2082FE5D3761CF6B2C3
:10D7E000202EDDD3BDE8F08F09F10100444600F0A2
:10D7F000FF09F3E7C82B01082DE9F047884601F03F
:10D800003F0400F07F09154902EBC200002501EB3F
:10D81000C00A00BF1AF805700026F80701D00122DF
:10D8200000E000222146484600F030F8641CE4B2D3
:10D830007F08A4EB0800182809D0761CF6B2082E41
:10D84000EBD36D1CEDB2482DE4D3BDE8F08709F1B0
:10D850000100444600F0FF09F3E700000834010826
:10D8600030B40021084B0A465FF0000003EBC0040F
:10D87000401CC0B262548428F8D3491CC9B208299C
:10D88000F2D330BC00F0E6B8C408002000F07F03FB
:10D89000072010B500EAD10001F00701C1F107042B
:10D8A0000121A140CCB20549002A01EBC3010A5C69
:10D8B00001D0224300E0A2430A5410BDC408002056
:10D8C0002DE9F047884601F03F0400F07F09154933
:10D8D00002EB4200002501EB001A00BF1AF80570A8
:10D8E0000026F80701D0012200E000222146484628
:10D8F000FFF7CCFF641CE4B27F08A4EB08001028FB
:10D9000009D0761CF6B2082EEBD36D1CEDB2302D8B
:10D91000E4D3BDE8F08709F10100444600F0FF09B7
:10D92000F3E700002835010810B5AE2000F0D4F868
:10D93000402000F0D1F8B02000F0CEF8812000F0B7
:10D94000CBF8FF2000F0C8F8822000F0C5F82020B6
:10D9500000F0C2F8A02000F0BFF8A42000F0BCF84E
:10D96000A62000F0B9F8A82000F0B6F83F2000F09B
:10D97000B3F8AD2000F0B0F88B2000F0ADF8C8206F
:10D9800000F0AAF8D32000F0A7F8002000F0A4F8D7
:10D99000D52000F0A1F8702000F09EF8D82000F00B
:10D9A0009BF8002000F098F8DA2000F095F812209B
:10D9B00000F092F8AF2000F08FF8BDE81040FFF7BC
:10D9C0004FBF10B5002208211120FFF715FF0122DB
:10D9D00008212920FFF710FF022208214120FFF72C
:10D9E0000BFF032208215920FFF706FF00231A46E8
:10D9F00028210120FFF7C8FE002301222821112041
:10DA0000FFF7C2FE0023022228212120FFF7BCFEDF
:10DA10000023032228213120FFF7B6FE0023042231
:10DA200028214120FFF7B0FE0023052228215120A4
:10DA3000FFF7AAFE0023062228216120FFF7A4FE9B
:10DA40000023072228217120FFF79EFEBDE8104029
:10DA5000AFF3008070B50E4E002400BF04F1B0009B
:10DA6000C0B200F039F8002000F036F8102000F0C5
:10DA700033F8002506EBC500005D00F067F86D1C6B
:10DA8000EDB2842DF6D3641CE4B2082CE6D370BD4D
:10DA9000C40800202DE9F0411F4616460D460446F5
:10DAA00013E0782C02D900241035EDB2302D03D9C3
:10DAB00000242546FFF7D4FE32783B46294620460F
:10DAC000FFF728FE0834E4B2761C307820385E2850
:10DAD000E7D9BDE8F081000070B501221A4C064676
